{
  "_format": "hh-sol-artifact-1",
  "contractName": "Raffle",
  "sourceName": "contracts/Raffle.sol",
  "abi": [
    {
      "inputs": [
        {
          "internalType": "address",
          "name": "vrfCoordinatorV2",
          "type": "address"
        },
        {
          "internalType": "uint256",
          "name": "entranceFee",
          "type": "uint256"
        },
        {
          "internalType": "bytes32",
          "name": "gasLane",
          "type": "bytes32"
        },
        {
          "internalType": "uint64",
          "name": "subscriptionId",
          "type": "uint64"
        },
        {
          "internalType": "uint32",
          "name": "callBackGasLimit",
          "type": "uint32"
        },
        {
          "internalType": "uint256",
          "name": "interval",
          "type": "uint256"
        }
      ],
      "stateMutability": "nonpayable",
      "type": "constructor"
    },
    {
      "inputs": [
        {
          "internalType": "address",
          "name": "have",
          "type": "address"
        },
        {
          "internalType": "address",
          "name": "want",
          "type": "address"
        }
      ],
      "name": "OnlyCoordinatorCanFulfill",
      "type": "error"
    },
    {
      "inputs": [],
      "name": "Raffle__NotEnoughETHEntered",
      "type": "error"
    },
    {
      "inputs": [],
      "name": "Raffle__StateClosed",
      "type": "error"
    },
    {
      "inputs": [],
      "name": "Raffle__TransferFailed",
      "type": "error"
    },
    {
      "inputs": [
        {
          "internalType": "uint256",
          "name": "currentBalance",
          "type": "uint256"
        },
        {
          "internalType": "uint256",
          "name": "numPlayers",
          "type": "uint256"
        },
        {
          "internalType": "uint256",
          "name": "raffleState",
          "type": "uint256"
        }
      ],
      "name": "Raffle__UPkeepNotNeeded",
      "type": "error"
    },
    {
      "anonymous": false,
      "inputs": [
        {
          "indexed": true,
          "internalType": "address",
          "name": "player",
          "type": "address"
        }
      ],
      "name": "RaffleEnter",
      "type": "event"
    },
    {
      "anonymous": false,
      "inputs": [
        {
          "indexed": true,
          "internalType": "uint256",
          "name": "requestId",
          "type": "uint256"
        }
      ],
      "name": "RequestedRaffleWinner",
      "type": "event"
    },
    {
      "anonymous": false,
      "inputs": [
        {
          "indexed": true,
          "internalType": "address",
          "name": "winner",
          "type": "address"
        }
      ],
      "name": "WinnerPicked",
      "type": "event"
    },
    {
      "inputs": [
        {
          "internalType": "bytes",
          "name": "",
          "type": "bytes"
        }
      ],
      "name": "checkUpkeep",
      "outputs": [
        {
          "internalType": "bool",
          "name": "upkeepNeeded",
          "type": "bool"
        },
        {
          "internalType": "bytes",
          "name": "",
          "type": "bytes"
        }
      ],
      "stateMutability": "nonpayable",
      "type": "function"
    },
    {
      "inputs": [],
      "name": "enterRaffle",
      "outputs": [],
      "stateMutability": "payable",
      "type": "function"
    },
    {
      "inputs": [],
      "name": "getEntranceFee",
      "outputs": [
        {
          "internalType": "uint256",
          "name": "",
          "type": "uint256"
        }
      ],
      "stateMutability": "view",
      "type": "function"
    },
    {
      "inputs": [],
      "name": "getInterval",
      "outputs": [
        {
          "internalType": "uint256",
          "name": "",
          "type": "uint256"
        }
      ],
      "stateMutability": "view",
      "type": "function"
    },
    {
      "inputs": [],
      "name": "getLatestTimeStamp",
      "outputs": [
        {
          "internalType": "uint256",
          "name": "",
          "type": "uint256"
        }
      ],
      "stateMutability": "view",
      "type": "function"
    },
    {
      "inputs": [],
      "name": "getNumWords",
      "outputs": [
        {
          "internalType": "uint256",
          "name": "",
          "type": "uint256"
        }
      ],
      "stateMutability": "pure",
      "type": "function"
    },
    {
      "inputs": [],
      "name": "getNumberOfPlayer",
      "outputs": [
        {
          "internalType": "uint256",
          "name": "",
          "type": "uint256"
        }
      ],
      "stateMutability": "view",
      "type": "function"
    },
    {
      "inputs": [
        {
          "internalType": "uint256",
          "name": "index",
          "type": "uint256"
        }
      ],
      "name": "getPlayer",
      "outputs": [
        {
          "internalType": "address",
          "name": "",
          "type": "address"
        }
      ],
      "stateMutability": "view",
      "type": "function"
    },
    {
      "inputs": [],
      "name": "getRaffleState",
      "outputs": [
        {
          "internalType": "enum Raffle.RaffleState",
          "name": "",
          "type": "uint8"
        }
      ],
      "stateMutability": "view",
      "type": "function"
    },
    {
      "inputs": [],
      "name": "getRecentWinner",
      "outputs": [
        {
          "internalType": "address",
          "name": "",
          "type": "address"
        }
      ],
      "stateMutability": "view",
      "type": "function"
    },
    {
      "inputs": [],
      "name": "getRequestConfirmations",
      "outputs": [
        {
          "internalType": "uint256",
          "name": "",
          "type": "uint256"
        }
      ],
      "stateMutability": "pure",
      "type": "function"
    },
    {
      "inputs": [
        {
          "internalType": "bytes",
          "name": "",
          "type": "bytes"
        }
      ],
      "name": "performUpkeep",
      "outputs": [],
      "stateMutability": "nonpayable",
      "type": "function"
    },
    {
      "inputs": [
        {
          "internalType": "uint256",
          "name": "requestId",
          "type": "uint256"
        },
        {
          "internalType": "uint256[]",
          "name": "randomWords",
          "type": "uint256[]"
        }
      ],
      "name": "rawFulfillRandomWords",
      "outputs": [],
      "stateMutability": "nonpayable",
      "type": "function"
    }
  ],
  "bytecode": "0x6101606040523480156200001257600080fd5b506040516200181b3803806200181b833981810160405281019062000038919062000294565b858073ffffffffffffffffffffffffffffffffffffffff1660808173ffffffffffffffffffffffffffffffffffffffff1681525050508460a081815250508573ffffffffffffffffffffffffffffffffffffffff1660c08173ffffffffffffffffffffffffffffffffffffffff16815250508360e081815250508267ffffffffffffffff166101008167ffffffffffffffff16815250508163ffffffff166101208163ffffffff16815250506000600260146101000a81548160ff021916908360018111156200010d576200010c62000330565b5b0217905550426001819055508061014081815250505050505050506200035f565b600080fd5b600073ffffffffffffffffffffffffffffffffffffffff82169050919050565b6000620001608262000133565b9050919050565b620001728162000153565b81146200017e57600080fd5b50565b600081519050620001928162000167565b92915050565b6000819050919050565b620001ad8162000198565b8114620001b957600080fd5b50565b600081519050620001cd81620001a2565b92915050565b6000819050919050565b620001e881620001d3565b8114620001f457600080fd5b50565b6000815190506200020881620001dd565b92915050565b600067ffffffffffffffff82169050919050565b6200022d816200020e565b81146200023957600080fd5b50565b6000815190506200024d8162000222565b92915050565b600063ffffffff82169050919050565b6200026e8162000253565b81146200027a57600080fd5b50565b6000815190506200028e8162000263565b92915050565b60008060008060008060c08789031215620002b457620002b36200012e565b5b6000620002c489828a0162000181565b9650506020620002d789828a01620001bc565b9550506040620002ea89828a01620001f7565b9450506060620002fd89828a016200023c565b93505060806200031089828a016200027d565b92505060a06200032389828a01620001bc565b9150509295509295509295565b7f4e487b7100000000000000000000000000000000000000000000000000000000600052602160045260246000fd5b60805160a05160c05160e05161010051610120516101405161144c620003cf600039600081816107f70152610865015260006106a60152600061068301526000610662015260006106260152600081816102fa01526103f7015260008181610337015261038b015261144c6000f3fe6080604052600436106100c25760003560e01c8063473f1ddc1161007f5780636e04ff0d116100595780636e04ff0d1461022557806391ad27b414610263578063bd4d025c1461028e578063e55ae4e8146102b9576100c2565b8063473f1ddc146101a457806353a2c19a146101cf5780635f1b0fd8146101fa576100c2565b806309bc33a7146100c7578063115cbaf5146100f25780631fe543e31461011d5780632cfcc53914610146578063320229eb146101505780634585e33b1461017b575b600080fd5b3480156100d357600080fd5b506100dc6102f6565b6040516100e99190610bcd565b60405180910390f35b3480156100fe57600080fd5b5061010761031e565b6040516101149190610c5f565b60405180910390f35b34801561012957600080fd5b50610144600480360381019061013f9190610e13565b610335565b005b61014e6103f5565b005b34801561015c57600080fd5b50610165610564565b6040516101729190610bcd565b60405180910390f35b34801561018757600080fd5b506101a2600480360381019061019d9190610eca565b61056e565b005b3480156101b057600080fd5b506101b961076e565b6040516101c69190610f58565b60405180910390f35b3480156101db57600080fd5b506101e4610798565b6040516101f19190610bcd565b60405180910390f35b34801561020657600080fd5b5061020f6107a7565b60405161021c9190610bcd565b60405180910390f35b34801561023157600080fd5b5061024c60048036038101906102479190611028565b6107b4565b60405161025a929190611114565b60405180910390f35b34801561026f57600080fd5b50610278610861565b6040516102859190610bcd565b60405180910390f35b34801561029a57600080fd5b506102a3610889565b6040516102b09190610bcd565b60405180910390f35b3480156102c557600080fd5b506102e060048036038101906102db9190611144565b610895565b6040516102ed9190610f58565b60405180910390f35b60007f0000000000000000000000000000000000000000000000000000000000000000905090565b6000600260149054906101000a900460ff16905090565b7f000000000000000000000000000000000000000000000000000000000000000073ffffffffffffffffffffffffffffffffffffffff163373ffffffffffffffffffffffffffffffffffffffff16146103e757337f00000000000000000000000000000000000000000000000000000000000000006040517f1cf993f40000000000000000000000000000000000000000000000000000000081526004016103de929190611171565b60405180910390fd5b6103f182826108dc565b5050565b7f000000000000000000000000000000000000000000000000000000000000000034101561044f576040517fbd4e069500000000000000000000000000000000000000000000000000000000815260040160405180910390fd5b6000600181111561046357610462610be8565b5b600260149054906101000a900460ff16600181111561048557610484610be8565b5b146104bc576040517f5cf0757d00000000000000000000000000000000000000000000000000000000815260040160405180910390fd5b6000339080600181540180825580915050600190039060005260206000200160009091909190916101000a81548173ffffffffffffffffffffffffffffffffffffffff021916908373ffffffffffffffffffffffffffffffffffffffff1602179055503373ffffffffffffffffffffffffffffffffffffffff167f0805e1d667bddb8a95f0f09880cf94f403fb596ce79928d9f29b74203ba284d460405160405180910390a2565b6000600154905090565b6000610588604051806020016040528060008152506107b4565b509050806105f75747600080549050600260149054906101000a900460ff1660018111156105b9576105b8610be8565b5b6040517f900a90ba0000000000000000000000000000000000000000000000000000000081526004016105ee9392919061119a565b60405180910390fd5b6001600260146101000a81548160ff0219169083600181111561061d5761061c610be8565b5b021790555060007f000000000000000000000000000000000000000000000000000000000000000073ffffffffffffffffffffffffffffffffffffffff16635d3b1d307f00000000000000000000000000000000000000000000000000000000000000007f000000000000000000000000000000000000000000000000000000000000000060037f000000000000000000000000000000000000000000000000000000000000000060016040518663ffffffff1660e01b81526004016106e7959493929190611249565b602060405180830381600087803b15801561070157600080fd5b505af1158015610715573d6000803e3d6000fd5b505050506040513d601f19601f8201168201806040525081019061073991906112b1565b9050807fcd6e45c8998311cab7e9d4385596cac867e20a0587194b954fa3a731c93ce78b60405160405180910390a250505050565b6000600260009054906101000a900473ffffffffffffffffffffffffffffffffffffffff16905090565b6000600163ffffffff16905090565b6000600361ffff16905090565b600060606000600260149054906101000a900460ff1660018111156107dc576107db610be8565b5b600060018111156107f0576107ef610be8565b5b14905060007f000000000000000000000000000000000000000000000000000000000000000060015442610824919061130d565b119050600080600080549050119050600080471190508380156108445750825b801561084d5750815b80156108565750805b955050505050915091565b60007f0000000000000000000000000000000000000000000000000000000000000000905090565b60008080549050905090565b60008082815481106108aa576108a9611341565b5b9060005260206000200160009054906101000a900473ffffffffffffffffffffffffffffffffffffffff169050919050565b60008080549050826000815181106108f7576108f6611341565b5b6020026020010151610909919061139f565b905060008082815481106109205761091f611341565b5b9060005260206000200160009054906101000a900473ffffffffffffffffffffffffffffffffffffffff16905080600260006101000a81548173ffffffffffffffffffffffffffffffffffffffff021916908373ffffffffffffffffffffffffffffffffffffffff1602179055506000600260146101000a81548160ff021916908360018111156109b4576109b3610be8565b5b0217905550600067ffffffffffffffff8111156109d4576109d3610cd0565b5b604051908082528060200260200182016040528015610a025781602001602082028036833780820191505090505b5060009080519060200190610a18929190610b0d565b504260018190555060008173ffffffffffffffffffffffffffffffffffffffff1647604051610a4690611401565b60006040518083038185875af1925050503d8060008114610a83576040519150601f19603f3d011682016040523d82523d6000602084013e610a88565b606091505b5050905080610ac3576040517fa1d04b3900000000000000000000000000000000000000000000000000000000815260040160405180910390fd5b8173ffffffffffffffffffffffffffffffffffffffff167f5b690ec4a06fe979403046eaeea5b3ce38524683c3001f662c8b5a829632f7df60405160405180910390a25050505050565b828054828255906000526020600020908101928215610b86579160200282015b82811115610b855782518260006101000a81548173ffffffffffffffffffffffffffffffffffffffff021916908373ffffffffffffffffffffffffffffffffffffffff16021790555091602001919060010190610b2d565b5b509050610b939190610b97565b5090565b5b80821115610bb0576000816000905550600101610b98565b5090565b6000819050919050565b610bc781610bb4565b82525050565b6000602082019050610be26000830184610bbe565b92915050565b7f4e487b7100000000000000000000000000000000000000000000000000000000600052602160045260246000fd5b60028110610c2857610c27610be8565b5b50565b6000819050610c3982610c17565b919050565b6000610c4982610c2b565b9050919050565b610c5981610c3e565b82525050565b6000602082019050610c746000830184610c50565b92915050565b6000604051905090565b600080fd5b600080fd5b610c9781610bb4565b8114610ca257600080fd5b50565b600081359050610cb481610c8e565b92915050565b600080fd5b6000601f19601f8301169050919050565b7f4e487b7100000000000000000000000000000000000000000000000000000000600052604160045260246000fd5b610d0882610cbf565b810181811067ffffffffffffffff82111715610d2757610d26610cd0565b5b80604052505050565b6000610d3a610c7a565b9050610d468282610cff565b919050565b600067ffffffffffffffff821115610d6657610d65610cd0565b5b602082029050602081019050919050565b600080fd5b6000610d8f610d8a84610d4b565b610d30565b90508083825260208201905060208402830185811115610db257610db1610d77565b5b835b81811015610ddb5780610dc78882610ca5565b845260208401935050602081019050610db4565b5050509392505050565b600082601f830112610dfa57610df9610cba565b5b8135610e0a848260208601610d7c565b91505092915050565b60008060408385031215610e2a57610e29610c84565b5b6000610e3885828601610ca5565b925050602083013567ffffffffffffffff811115610e5957610e58610c89565b5b610e6585828601610de5565b9150509250929050565b600080fd5b60008083601f840112610e8a57610e89610cba565b5b8235905067ffffffffffffffff811115610ea757610ea6610e6f565b5b602083019150836001820283011115610ec357610ec2610d77565b5b9250929050565b60008060208385031215610ee157610ee0610c84565b5b600083013567ffffffffffffffff811115610eff57610efe610c89565b5b610f0b85828601610e74565b92509250509250929050565b600073ffffffffffffffffffffffffffffffffffffffff82169050919050565b6000610f4282610f17565b9050919050565b610f5281610f37565b82525050565b6000602082019050610f6d6000830184610f49565b92915050565b600080fd5b600067ffffffffffffffff821115610f9357610f92610cd0565b5b610f9c82610cbf565b9050602081019050919050565b82818337600083830152505050565b6000610fcb610fc684610f78565b610d30565b905082815260208101848484011115610fe757610fe6610f73565b5b610ff2848285610fa9565b509392505050565b600082601f83011261100f5761100e610cba565b5b813561101f848260208601610fb8565b91505092915050565b60006020828403121561103e5761103d610c84565b5b600082013567ffffffffffffffff81111561105c5761105b610c89565b5b61106884828501610ffa565b91505092915050565b60008115159050919050565b61108681611071565b82525050565b600081519050919050565b600082825260208201905092915050565b60005b838110156110c65780820151818401526020810190506110ab565b838111156110d5576000848401525b50505050565b60006110e68261108c565b6110f08185611097565b93506111008185602086016110a8565b61110981610cbf565b840191505092915050565b6000604082019050611129600083018561107d565b818103602083015261113b81846110db565b90509392505050565b60006020828403121561115a57611159610c84565b5b600061116884828501610ca5565b91505092915050565b60006040820190506111866000830185610f49565b6111936020830184610f49565b9392505050565b60006060820190506111af6000830186610bbe565b6111bc6020830185610bbe565b6111c96040830184610bbe565b949350505050565b6000819050919050565b6111e4816111d1565b82525050565b600067ffffffffffffffff82169050919050565b611207816111ea565b82525050565b600061ffff82169050919050565b6112248161120d565b82525050565b600063ffffffff82169050919050565b6112438161122a565b82525050565b600060a08201905061125e60008301886111db565b61126b60208301876111fe565b611278604083018661121b565b611285606083018561123a565b611292608083018461123a565b9695505050505050565b6000815190506112ab81610c8e565b92915050565b6000602082840312156112c7576112c6610c84565b5b60006112d58482850161129c565b91505092915050565b7f4e487b7100000000000000000000000000000000000000000000000000000000600052601160045260246000fd5b600061131882610bb4565b915061132383610bb4565b925082821015611336576113356112de565b5b828203905092915050565b7f4e487b7100000000000000000000000000000000000000000000000000000000600052603260045260246000fd5b7f4e487b7100000000000000000000000000000000000000000000000000000000600052601260045260246000fd5b60006113aa82610bb4565b91506113b583610bb4565b9250826113c5576113c4611370565b5b828206905092915050565b600081905092915050565b50565b60006113eb6000836113d0565b91506113f6826113db565b600082019050919050565b600061140c826113de565b915081905091905056fea2646970667358221220efad1c536e2e33d3aa22d3d37c4e298a309dcea88ecf978d33c7497e7cd1ae5d64736f6c63430008090033",
  "linkReferences": {},
  "deployedLinkReferences": {}
}